:100000000C942A000C943F000C943F000C943F0089
:100010000C943F000C943F000C943F000C943F0064
:100020000C943F000C943F000C943F000C943F0054
:100030000C943F000C943F000C943F000C943F0044
:100040000C943F000C943F000C943F000C943F0034
:100050000C943F0011241FBECFE5D8E0DEBFCDBF1A
:1000600011E0A0E6B0E0EAEAF1E102C005900D92ED
:10007000AE31B107D9F70E9404040C94D3080C9454
:10008000000080FF0BC0C29A81FF0AC0C39A82FFA2
:1000900009C0C49A83FF08C0C59A0895C298F4CFD6
:1000A000C398F5CFC498F6CFC5980895CF93C82FBD
:1000B000C19A82958F700E944100C198C19A8C2F7D
:1000C0000E944100C19885E88A95F1F70000CF9120
:1000D0000895C0980C945600C09A0C945600CF9383
:1000E000DF93EC018991811103C0DF91CF910895D5
:1000F0000E946C00F7CF6295660F660F607C860FDA
:1001000080680C94690081E00E9469008FE99FE09B
:100110000197F1F700C00000089582E00E94690095
:100120008FE99FE00197F1F700C000000895CF9399
:10013000BA9ABB9ABC9ABD9AB99AB89A8FE295E7D7
:100140000197F1F700C00000C098C198C3E0C19AC0
:1001500083E00E944100C1988FE097E20197F1F798
:1001600000C00000C15099F7C19A82E00E9441008E
:10017000C1988FEC97E00197F1F700C0000088E28A
:100180000E94690088E00E94690081E00E94690085
:100190008FE99FE00197F1F700C0000086E00E9420
:1001A00069008CE0CF910C9469003E9A3F98309A98
:1001B000319A329A379A389839983A983B980895F4
:1001C000369A3699FECF84B195B10895CF93DF93D7
:1001D00000D000D0CDB7DEB70E94E0009C01990F9F
:1001E000440B550B29833A834B835C83CA01B901C5
:1001F0000E94F20420E030E040EA50E469837A8310
:100200008B839C8369817A818B819C810E947E058E
:1002100020E030E048EC52E469837A838B839C834E
:1002200069817A818B819C810E947E0520E030E883
:100230004FE754E469837A838B839C8369817A8155
:100240008B819C810E94480469837A838B839C8381
:1002500069817A818B819C810E94BA04CB010F90C5
:100260000F900F900F90DF91CF9108959B0164E65E
:1002700070E00E9420048B309105BCF09F938F9317
:100280007F936F938CEE90E09F938F933F932F9388
:100290000E94FD058DB79EB708960FB6F8949EBFD5
:1002A0000FBE8DBF90E080E008959F938F937F9362
:1002B0006F938BEF90E09F938F933F932F930E94C8
:1002C000FD058DB79EB708960FB6F8949EBF0FBE7A
:1002D0008DBFE8CFEF92FF920F931F93CF93DF93E1
:1002E000EC01FC0101900020E9F710E000E08E1B1A
:1002F0009F0B9C01235F3F4F79010E151F0558F09E
:100300006BE071E0CE01DF91CF911F910F91FF90D3
:10031000EF900C94EB0560E270E0CE010E94EB05DB
:100320000F5F1F4FEACFCF93DF93CDB7DEB7A8970C
:100330000FB6F894DEBF0FBECDBF81E1E0E6F0E07E
:10034000DE01559601900D928A95E1F7FE01B69671
:1003500083E0DF011D928A95E9F78EE0E4E7F0E0A3
:10036000DE01119601900D928A95E1F7FE013F960C
:1003700086E0DF011D928A95E9F70E94830060E024
:1003800080E00E947B00CE0145960E946F0061E0F4
:1003900080E00E947B00CE0101960E946F00BFEFBB
:1003A00027EA81E6B15020408040E1F700C000001C
:1003B000A8960FB6F894DEBF0FBECDBFDF91CF91E8
:1003C00008959C01E2E0F0E002974CF480E008958B
:1003D000C901BF010E942004892BC1F33196EE9F11
:1003E000C001EF9F900D900D11242817390784F755
:1003F00081E00895AF92BF92CF92DF92EF92FF9289
:100400000F931F93CF93DF93CDB7DEB764970FB6EB
:10041000F894DEBF0FBECDBF10E000E08AE1E82E09
:1004200081E0F82ECE0101966C0192E0A92EB12C4C
:10043000829912C0979A64960FB6F894DEBF0FBEE9
:10044000CDBFDF91CF911F910F91FF90EF90DF9083
:10045000CF90BF90AF9008959798809B3EC0819BAE
:1004600048C01F930F93FF92EF92DF92CF920E94AA
:10047000FD050E94830060E080E00E947B00C601D1
:100480000E946F000F900F900F900F900F900F90A1
:1004900000FD08C0949A95988FE19EE40197F1F7CA
:1004A00000C00000C801B5010E942004019741F47A
:1004B0009498959A8FE19EE40197F1F700C00000AF
:1004C000C8010E94E101882301F1969A8FE19EE420
:1004D0000197F1F700C00000ABCF809BFECF979A49
:1004E0008FE19EE40197F1F700C000000F5F1F4FFE
:1004F000B4CF819BFECF979A8FE19EE40197F1F7ED
:1005000000C0000001501109AACF9698DFCF829950
:10051000FECF08950C948702AF92BF92CF92DF92E4
:10052000EF92FF920F931F93CF93DF93CDB7DEB778
:10053000A8970FB6F894DEBF0FBECDBF8FEF84BB78
:1005400015BA0E94D50080E1A82E81E0B82E8E0158
:100550000B5E1F4F829911C0A8960FB6F894DEBFAC
:100560000FBECDBFDF91CF911F910F91FF90EF9004
:10057000DF90CF90BF90AF9008950E94E000D82EFA
:10058000C92E0E94E6007C01CF92DF92BF92AF920B
:100590001F930F930E94FD05BE016F5F7F4FC70140
:1005A0000E9436010E94830060E080E00E947B0090
:1005B000C8010E946F0061E080E00E947B00CE01D4
:1005C00001960E946F002FEF80E792E0215080405B
:1005D0009040E1F700C000000F900F900F900F9037
:1005E0000F900F90B7CFAF92BF92DF92EF92FF9232
:1005F0000F931F93CF93DF93CDB7DEB7CC58D109BC
:100600000FB6F894DEBF0FBECDBF0E94830084E614
:10061000E8E8F0E0DE01119601900D928A95E1F78D
:100620000E94830060E080E00E947B00CE01019682
:100630000E946A01BC01CE0187589F4F0E94F605B7
:10064000CE0187589F4F0E946F0061E080E00E94BA
:100650007B00BE016B5E7F4FCE018B599F4F0E9486
:10066000F605CE018B599F4F0E946F002FEF30E7A8
:1006700082E0215030408040E1F700C0000010E0EF
:1006800000E084E1D82E83995AC0C801C457DF4FD7
:100690000FB6F894DEBF0FBECDBFDF91CF911F9193
:1006A0000F91FF90EF90DF90BF90AF9008950530CD
:1006B00011050CF08DC058019FEFA91AB90A819B52
:1006C000FECF0E94830060E080E00E947B00D09E0D
:1006D0007001D19EF00C112461E070E06C0F7D1F61
:1006E0006E0D7F1DCE0187589F4F0E94F605CE01EB
:1006F00087589F4F0E946F0061E080E00E947B005E
:10070000C701449621E030E02C0F3D1F820F931F5C
:100710000E946A01BC01CE018B599F4F0E94F605D1
:10072000CE018B599F4F0E946F003FEF80E792E010
:10073000315080409040E1F700C000008501819B6E
:10074000B6CF8099A0CF17FD46C001501109809BFC
:10075000FECF0E94830060E080E00E947B00D09E7C
:100760007001D19EF00C112481E090E08C0F9D1F50
:100770008E0D9F1D0E946A01BC01CE0187589F4FBC
:100780000E94F605CE0187589F4F0E946F0061E0DE
:1007900080E00E947B00B7016C5E7F4F21E030E07B
:1007A0002C0F3D1F620F731FCE018B599F4F0E946C
:1007B000F605CE018B599F4F0E946F003FEF80E7F7
:1007C00092E0315080409040E1F700C00000B9CF86
:1007D00004E010E0B4CF10E000E0B3CF009711F4D4
:1007E0000C9493018130910529F08230910521F418
:1007F0000C9487020C94FA0183309105C9F3049795
:1008000011F40C948C0208950E9497000E948D00B0
:100810008FEF81BB889889988A988B98909A919A43
:10082000929A939A0E9493010E9483000E94F3027D
:1008300097980E94EE039798969895989498F6CF7B
:1008400097FB072E16F4009407D077FD09D00E947D
:10085000340407FC05D03EF4909581959F4F089590
:10086000709561957F4F0895AA1BBB1B51E107C08E
:10087000AA1FBB1FA617B70710F0A61BB70B881F30
:10088000991F5A95A9F780959095BC01CD010895BF
:100890000E945C040C9444050E943D0558F00E949F
:1008A000360540F029F45F3F29F00C942D055111D5
:1008B0000C9478050C9433050E94550568F3992330
:1008C000B1F3552391F3951B550BBB27AA2762174C
:1008D0007307840738F09F5F5F4F220F331F441F59
:1008E000AA1FA9F335D00E2E3AF0E0E832D091508D
:1008F0005040E695001CCAF72BD0FE2F29D0660F7A
:10090000771F881FBB1F261737074807AB07B0E8BC
:1009100009F0BB0B802DBF01FF2793585F4F3AF0C2
:100920009E3F510578F00C942D050C9478055F3F9F
:10093000E4F3983ED4F3869577956795B795F79548
:100940009F5FC9F7880F911D9695879597F9089530
:10095000E1E0660F771F881FBB1F621773078407CC
:10096000BA0720F0621B730B840BBA0BEE1F88F7DB
:10097000E09508950E94C1046894B1110C94780523
:1009800008950E945D0588F09F5798F0B92F992728
:10099000B751B0F0E1F0660F771F881F991F1AF06A
:1009A000BA95C9F714C0B13091F00E947705B1E053
:1009B00008950C947705672F782F8827B85F39F052
:1009C000B93FCCF3869577956795B395D9F73EF403
:1009D00090958095709561957F4F8F4F9F4F0895AB
:1009E000E89409C097FB3EF49095809570956195C9
:1009F0007F4F8F4F9F4F9923A9F0F92F96E9BB277F
:100A00009395F695879577956795B795F111F8CFFA
:100A1000FAF4BB0F11F460FF1BC06F5F7F4F8F4F65
:100A20009F4F16C0882311F096E911C0772321F05B
:100A30009EE8872F762F05C0662371F096E8862FF3
:100A400070E060E02AF09A95660F771F881FDAF74A
:100A5000880F9695879597F9089597F99F6780E88D
:100A600070E060E008959FEF80EC089500240A9400
:100A70001616170618060906089500240A94121679
:100A80001306140605060895092E0394000C11F4AC
:100A9000882352F0BB0F40F4BF2B11F460FF04C059
:100AA0006F5F7F4F8F4F9F4F089557FD9058440FB2
:100AB000551F59F05F3F71F04795880F97FB991FBD
:100AC00061F09F3F79F0879508951216130614067A
:100AD000551FF2CF4695F1DF08C016161706180607
:100AE000991FF1CF86957105610508940895E894E2
:100AF000BB2766277727CB0197F908950E949105B8
:100B00000C9444050E94360538F00E943D0520F003
:100B1000952311F00C942D050C94330511240C949D
:100B200078050E94550570F3959FC1F3950F50E02D
:100B3000551F629FF001729FBB27F00DB11D639F8F
:100B4000AA27F00DB11DAA1F649F6627B00DA11D35
:100B5000661F829F2227B00DA11D621F739FB00DDB
:100B6000A11D621F839FA00D611D221F749F33274B
:100B7000A00D611D231F849F600D211D822F762FE4
:100B80006A2F11249F5750409AF0F1F088234AF0C1
:100B9000EE0FFF1FBB1F661F771F881F915050402D
:100BA000A9F79E3F510580F00C942D050C94780513
:100BB0005F3FE4F3983ED4F3869577956795B795B4
:100BC000F795E7959F5FC1F7FE2B880F911D9695CE
:100BD000879597F90895FB01DC010D900020E9F756
:100BE000119701900D920020E1F70895FB01DC01BF
:100BF00001900D920020E1F70895AEE0B0E0E3E04F
:100C0000F6E00C94AA080D891E8986E08C831A836D
:100C100009838FEF9FE79E838D83AE01475E5F4F11
:100C20006F89788DCE0101960E9420062F8138852C
:100C3000020F131FF80110822E96E4E00C94C608F0
:100C4000AFE0B0E0E6E2F6E00C949C087C013B01EA
:100C50008A01DC0117961C921E92169713968C91AE
:100C600081FFC3C19AE0292EFE0131964F01D701C1
:100C700013969C91F30193FD859193FF81913F0120
:100C8000882309F448C1853239F493FD859193FF97
:100C900081913F01853229F4B70190E00E940E084E
:100CA000E6CFB12C412C512CBFE1B51538F08B3279
:100CB00009F188F4803201F1833221F157FC3AC006
:100CC00020ED280F2A3040F556FE1FC0B29C200DA3
:100CD0001124B22E06C08D3291F0803379F76894DA
:100CE00050F8F30193FD859193FF81913F018111AC
:100CF000DBCF20C0689451F8689452F8F2CF689422
:100D000053F8EFCF689454F8ECCF429C200D112497
:100D1000422E689455F8E5CF8E3229F456FCFBC07C
:100D2000689456F8DECF8C3619F4689457F8D9CF0A
:100D30008836B9F2982F9F7D95549330C0F0833652
:100D4000A1F18337C1F1833509F05BC0D801CD90A3
:100D5000DD908D016B2D70E056FC02C06FEF7FEFD0
:100D6000C6010E94F8075C01689457F80AC00C5F3E
:100D70001F4FEFE3E983AA24A394B12C6401E89404
:100D800057F853FC04C04A141B0409F018F5342C1E
:100D9000A114B10431F5332009F469CFB70180E221
:100DA00090E00E940E083A94F6CFD8018C91898386
:100DB0000E5F1F4FE0CFF801C190D1908F016B2DD6
:100DC00070E056FC02C06FEF7FEFC6010E9403087F
:100DD0005C01D5CFB70180E290E00E940E084A94F2
:100DE000D2CFF60157FC859157FE81916F01B70173
:100DF00090E00E940E0831103A94B1E0AB1AB108AD
:100E0000C7CF843619F0893609F074C0F80157FE4F
:100E10006AC061917191819191918F01E52DEF7679
:100E2000DE2E97FF09C090958095709561957F4F54
:100E30008F4F9F4F6894D7F82AE030E0A4010E94BA
:100E40003E08C82EC818AC2C5D2CD6FE0CC0E89409
:100E500050F8CB1440F4D4FE05C0D2FC03C05D2D85
:100E60005E7E552EAB2C54FE98C0FE01EC0DF11D9C
:100E70008081803309F08AC0652D697E562E752DDC
:100E80007870372E53FC98C050FE92C0BC2CA4142E
:100E900018F44C0CB42CBA1854FE94C0B70180E37B
:100EA00090E00E940E0852FE09C088E790E051FED3
:100EB00002C088E590E0B7010E940E08CB1408F448
:100EC0008DC0CA94D12C8FEFC81AD80AC80CD91C6F
:100ED000D6018E916D01B70190E00E940E088C142E
:100EE0009D04B1F758CF61917191072E000C880BCA
:100EF000990B93CFD52CE894D4F82AE030E08537CD
:100F000039F1F52DF97FDF2E8037A9F058F48835B7
:100F1000A9F08F36D9F0F701868197812F96E2E10B
:100F20000C94B8088837B9F7D4FE02C06894D2F898
:100F300020E130E00DC06894D4F8F6CF54FE03C031
:100F40002F2F2660D22E20E132E002C028E030E0D0
:100F5000F801D7FE15C041915191619171914C8773
:100F60005D876E877F878F01A4016C857D858E8567
:100F70009F850E943E08C82EC818E894D7F863CF12
:100F800081919191AC0170E060E0E9CF52FC02C028
:100F9000A39475CFA394A39472CF852D867809F47A
:100FA0006ECFF6CFB70180E290E00E940E08A394C6
:100FB000A414C0F3312C70CF342C3A18A41408F4C4
:100FC0006BCFF8CF852D867809F478CF8BE251FE70
:100FD00080E257FC8DE2B70190E06ECFB70180E36D
:100FE00090E00E940E08BA9469CF8FEF9FEF96CFE2
:100FF000FC010590615070400110D8F780959095E4
:101000008E0F9F1F0895FC016150704001900110E8
:10101000D8F7809590958E0F9F1F08950F931F937B
:10102000CF93DF93182F092FEB018B8181FD09C02E
:101030001FEF0FEF812F902FDF91CF911F910F9115
:10104000089582FF14C02E813F818C819D812817D5
:1010500039073CF4E881F981CF01019699838883AF
:1010600010838E819F8101969F838E83E3CFE885D5
:10107000F985812F0995892BA1F3DACFFA01AA27E7
:10108000283051F1203181F1E8946F936E7F6E5FCB
:101090007F4F8F4F9F4FAF4FB1E03ED0B4E03CD079
:1010A000670F781F891F9A1FA11D680F791F8A1F5C
:1010B000911DA11D6A0F711D811D911DA11D20D0C3
:1010C00009F468943F912AE0269F11243019305D7D
:1010D0003193DEF6CF010895462F4770405D41936E
:1010E000B3E00FD0C9F7F6CF462F4F70405D4A33BB
:1010F00018F0495D31FD4052419302D0A9F7EACF83
:10110000B4E0A6959795879577956795BA95C9F7B1
:1011100000976105710508959B01AC010A2E0694A4
:101120005795479537952795BA95C9F7620F731F5D
:10113000841F951FA01D08952F923F924F925F929A
:101140006F927F928F929F92AF92BF92CF92DF92D7
:10115000EF92FF920F931F93CF93DF93CDB7DEB73C
:10116000CA1BDB0B0FB6F894DEBF0FBECDBF0994D0
:101170002A88398848885F846E847D848C849B8427
:10118000AA84B984C884DF80EE80FD800C811B8135
:10119000AA81B981CE0FD11D0FB6F894DEBF0FBE64
:0A11A000CDBFED010895F894FFCFD4
:1011AA0050726F6772616D2050544D203230323167
:1011BA0000000000323532383731203235323833C8
:1011CA003900000000000000312E20496E666F00D1
:1011DA00000000000000000000000000322E204C39
:1011EA0069637A62790000000000000000000000D4
:1011FA00332E2053746F70657200000000000000E7
:10120A0000000000342E205A656761720000000059
:10121A000000000000000000352E204D6965726E46
:10122A00696B00000000000000000000506F6D694B
:10123A006172313A25642E25645600506F6D6961DA
:10124A0072313A25642E3025645600202009580050
:0E125A006C69746572616C203D202564000093
:00000001FF
